{
  "abi": [
    {
      "inputs": [],
      "stateMutability": "nonpayable",
      "type": "constructor"
    },
    {
      "anonymous": false,
      "inputs": [
        {
          "indexed": true,
          "internalType": "address",
          "name": "owner",
          "type": "address"
        },
        {
          "indexed": true,
          "internalType": "address",
          "name": "approved",
          "type": "address"
        },
        {
          "indexed": true,
          "internalType": "uint256",
          "name": "tokenId",
          "type": "uint256"
        }
      ],
      "name": "Approval",
      "type": "event"
    },
    {
      "anonymous": false,
      "inputs": [
        {
          "indexed": true,
          "internalType": "address",
          "name": "owner",
          "type": "address"
        },
        {
          "indexed": true,
          "internalType": "address",
          "name": "operator",
          "type": "address"
        },
        {
          "indexed": false,
          "internalType": "bool",
          "name": "approved",
          "type": "bool"
        }
      ],
      "name": "ApprovalForAll",
      "type": "event"
    },
    {
      "anonymous": false,
      "inputs": [
        {
          "indexed": true,
          "internalType": "address",
          "name": "previousOwner",
          "type": "address"
        },
        {
          "indexed": true,
          "internalType": "address",
          "name": "newOwner",
          "type": "address"
        }
      ],
      "name": "OwnershipTransferred",
      "type": "event"
    },
    {
      "anonymous": false,
      "inputs": [
        {
          "indexed": true,
          "internalType": "uint256",
          "name": "tokenId",
          "type": "uint256"
        },
        {
          "indexed": false,
          "internalType": "uint256",
          "name": "happiness",
          "type": "uint256"
        },
        {
          "indexed": false,
          "internalType": "uint256",
          "name": "satiety",
          "type": "uint256"
        },
        {
          "indexed": false,
          "internalType": "uint256",
          "name": "enrichment",
          "type": "uint256"
        },
        {
          "indexed": false,
          "internalType": "uint256",
          "name": "checked",
          "type": "uint256"
        },
        {
          "indexed": false,
          "internalType": "string",
          "name": "imageURI",
          "type": "string"
        }
      ],
      "name": "TamagotchiUpdate",
      "type": "event"
    },
    {
      "anonymous": false,
      "inputs": [
        {
          "indexed": true,
          "internalType": "address",
          "name": "from",
          "type": "address"
        },
        {
          "indexed": true,
          "internalType": "address",
          "name": "to",
          "type": "address"
        },
        {
          "indexed": true,
          "internalType": "uint256",
          "name": "tokenId",
          "type": "uint256"
        }
      ],
      "name": "Transfer",
      "type": "event"
    },
    {
      "inputs": [
        {
          "internalType": "address",
          "name": "to",
          "type": "address"
        },
        {
          "internalType": "uint256",
          "name": "tokenId",
          "type": "uint256"
        }
      ],
      "name": "approve",
      "outputs": [],
      "stateMutability": "nonpayable",
      "type": "function"
    },
    {
      "inputs": [
        {
          "internalType": "address",
          "name": "owner",
          "type": "address"
        }
      ],
      "name": "balanceOf",
      "outputs": [
        {
          "internalType": "uint256",
          "name": "",
          "type": "uint256"
        }
      ],
      "stateMutability": "view",
      "type": "function"
    },
    {
      "inputs": [
        {
          "internalType": "bytes",
          "name": "",
          "type": "bytes"
        }
      ],
      "name": "checkUpkeep",
      "outputs": [
        {
          "internalType": "bool",
          "name": "upkeepNeeded",
          "type": "bool"
        }
      ],
      "stateMutability": "view",
      "type": "function"
    },
    {
      "inputs": [],
      "name": "feed",
      "outputs": [],
      "stateMutability": "nonpayable",
      "type": "function"
    },
    {
      "inputs": [
        {
          "internalType": "uint256",
          "name": "tokenId",
          "type": "uint256"
        }
      ],
      "name": "getApproved",
      "outputs": [
        {
          "internalType": "address",
          "name": "",
          "type": "address"
        }
      ],
      "stateMutability": "view",
      "type": "function"
    },
    {
      "inputs": [],
      "name": "getMyGotchiStats",
      "outputs": [
        {
          "internalType": "uint256",
          "name": "",
          "type": "uint256"
        },
        {
          "internalType": "uint256",
          "name": "",
          "type": "uint256"
        },
        {
          "internalType": "uint256",
          "name": "",
          "type": "uint256"
        },
        {
          "internalType": "uint256",
          "name": "",
          "type": "uint256"
        },
        {
          "internalType": "string",
          "name": "",
          "type": "string"
        }
      ],
      "stateMutability": "view",
      "type": "function"
    },
    {
      "inputs": [
        {
          "internalType": "uint256",
          "name": "_tokenId",
          "type": "uint256"
        }
      ],
      "name": "getStats",
      "outputs": [
        {
          "internalType": "uint256",
          "name": "",
          "type": "uint256"
        },
        {
          "internalType": "uint256",
          "name": "",
          "type": "uint256"
        },
        {
          "internalType": "uint256",
          "name": "",
          "type": "uint256"
        },
        {
          "internalType": "uint256",
          "name": "",
          "type": "uint256"
        },
        {
          "internalType": "string",
          "name": "",
          "type": "string"
        }
      ],
      "stateMutability": "view",
      "type": "function"
    },
    {
      "inputs": [
        {
          "internalType": "uint256",
          "name": "",
          "type": "uint256"
        }
      ],
      "name": "idToAttributes",
      "outputs": [
        {
          "internalType": "uint256",
          "name": "tokenId",
          "type": "uint256"
        },
        {
          "internalType": "uint256",
          "name": "happiness",
          "type": "uint256"
        },
        {
          "internalType": "uint256",
          "name": "satiety",
          "type": "uint256"
        },
        {
          "internalType": "uint256",
          "name": "enrichment",
          "type": "uint256"
        },
        {
          "internalType": "uint256",
          "name": "lastChecked",
          "type": "uint256"
        },
        {
          "internalType": "string",
          "name": "imageURI",
          "type": "string"
        }
      ],
      "stateMutability": "view",
      "type": "function"
    },
    {
      "inputs": [],
      "name": "interval",
      "outputs": [
        {
          "internalType": "uint256",
          "name": "",
          "type": "uint256"
        }
      ],
      "stateMutability": "view",
      "type": "function"
    },
    {
      "inputs": [
        {
          "internalType": "address",
          "name": "owner",
          "type": "address"
        },
        {
          "internalType": "address",
          "name": "operator",
          "type": "address"
        }
      ],
      "name": "isApprovedForAll",
      "outputs": [
        {
          "internalType": "bool",
          "name": "",
          "type": "bool"
        }
      ],
      "stateMutability": "view",
      "type": "function"
    },
    {
      "inputs": [],
      "name": "name",
      "outputs": [
        {
          "internalType": "string",
          "name": "",
          "type": "string"
        }
      ],
      "stateMutability": "view",
      "type": "function"
    },
    {
      "inputs": [],
      "name": "owner",
      "outputs": [
        {
          "internalType": "address",
          "name": "",
          "type": "address"
        }
      ],
      "stateMutability": "view",
      "type": "function"
    },
    {
      "inputs": [
        {
          "internalType": "uint256",
          "name": "tokenId",
          "type": "uint256"
        }
      ],
      "name": "ownerOf",
      "outputs": [
        {
          "internalType": "address",
          "name": "",
          "type": "address"
        }
      ],
      "stateMutability": "view",
      "type": "function"
    },
    {
      "inputs": [
        {
          "internalType": "address",
          "name": "",
          "type": "address"
        }
      ],
      "name": "ownerToId",
      "outputs": [
        {
          "internalType": "uint256",
          "name": "",
          "type": "uint256"
        }
      ],
      "stateMutability": "view",
      "type": "function"
    },
    {
      "inputs": [
        {
          "internalType": "uint256",
          "name": "_tokenId",
          "type": "uint256"
        }
      ],
      "name": "passTime",
      "outputs": [],
      "stateMutability": "nonpayable",
      "type": "function"
    },
    {
      "inputs": [
        {
          "internalType": "bytes",
          "name": "",
          "type": "bytes"
        }
      ],
      "name": "performUpkeep",
      "outputs": [],
      "stateMutability": "nonpayable",
      "type": "function"
    },
    {
      "inputs": [],
      "name": "play",
      "outputs": [],
      "stateMutability": "nonpayable",
      "type": "function"
    },
    {
      "inputs": [],
      "name": "renounceOwnership",
      "outputs": [],
      "stateMutability": "nonpayable",
      "type": "function"
    },
    {
      "inputs": [
        {
          "internalType": "address",
          "name": "_to",
          "type": "address"
        }
      ],
      "name": "safeMint",
      "outputs": [],
      "stateMutability": "nonpayable",
      "type": "function"
    },
    {
      "inputs": [
        {
          "internalType": "address",
          "name": "from",
          "type": "address"
        },
        {
          "internalType": "address",
          "name": "to",
          "type": "address"
        },
        {
          "internalType": "uint256",
          "name": "tokenId",
          "type": "uint256"
        }
      ],
      "name": "safeTransferFrom",
      "outputs": [],
      "stateMutability": "nonpayable",
      "type": "function"
    },
    {
      "inputs": [
        {
          "internalType": "address",
          "name": "from",
          "type": "address"
        },
        {
          "internalType": "address",
          "name": "to",
          "type": "address"
        },
        {
          "internalType": "uint256",
          "name": "tokenId",
          "type": "uint256"
        },
        {
          "internalType": "bytes",
          "name": "data",
          "type": "bytes"
        }
      ],
      "name": "safeTransferFrom",
      "outputs": [],
      "stateMutability": "nonpayable",
      "type": "function"
    },
    {
      "inputs": [
        {
          "internalType": "address",
          "name": "operator",
          "type": "address"
        },
        {
          "internalType": "bool",
          "name": "approved",
          "type": "bool"
        }
      ],
      "name": "setApprovalForAll",
      "outputs": [],
      "stateMutability": "nonpayable",
      "type": "function"
    },
    {
      "inputs": [
        {
          "internalType": "bytes4",
          "name": "interfaceId",
          "type": "bytes4"
        }
      ],
      "name": "supportsInterface",
      "outputs": [
        {
          "internalType": "bool",
          "name": "",
          "type": "bool"
        }
      ],
      "stateMutability": "view",
      "type": "function"
    },
    {
      "inputs": [],
      "name": "symbol",
      "outputs": [
        {
          "internalType": "string",
          "name": "",
          "type": "string"
        }
      ],
      "stateMutability": "view",
      "type": "function"
    },
    {
      "inputs": [
        {
          "internalType": "uint256",
          "name": "_tokenId",
          "type": "uint256"
        }
      ],
      "name": "tokenURI",
      "outputs": [
        {
          "internalType": "string",
          "name": "",
          "type": "string"
        }
      ],
      "stateMutability": "view",
      "type": "function"
    },
    {
      "inputs": [
        {
          "internalType": "address",
          "name": "from",
          "type": "address"
        },
        {
          "internalType": "address",
          "name": "to",
          "type": "address"
        },
        {
          "internalType": "uint256",
          "name": "tokenId",
          "type": "uint256"
        }
      ],
      "name": "transferFrom",
      "outputs": [],
      "stateMutability": "nonpayable",
      "type": "function"
    },
    {
      "inputs": [
        {
          "internalType": "address",
          "name": "newOwner",
          "type": "address"
        }
      ],
      "name": "transferOwnership",
      "outputs": [],
      "stateMutability": "nonpayable",
      "type": "function"
    }
  ],
  "bytecode": {
    "object": "0x60156101208181527f6b7154777664475634644434384c334e325a7a343d00000000000000000000006101405260809081526101608281527f596754777664475634644434384c334e325a7a343d00000000000000000000006101805260a0526101a08281527f596b44777664475634644434384c334e325a7a343d00000000000000000000006101c05260c0526101e08281527f596f54777664475634644434384c334e325a7a343d00000000000000000000006102005260e0526102606040526102209182527f536744777664475634644434384c334e325a7a343d0000000000000000000000610240526101009190915262000103906009906005620001f4565b506064600c553480156200011657600080fd5b50604080518082018252600a81526954616d61676f7463686960b01b602080830191825283518085019094526004845263544d474360e01b908401528151919291620001659160009162000258565b5080516200017b90600190602084019062000258565b50505062000198620001926200019e60201b60201c565b620001a2565b62000399565b3390565b600780546001600160a01b038381166001600160a01b0319831681179093556040519116919082907f8be0079c531659141344cd1fd0a4f28419497f9722a3daafe3b4186f6b6457e090600090a35050565b82805482825590600052602060002090810192821562000246579160200282015b828111156200024657825180516200023591849160209091019062000258565b509160200191906001019062000215565b5062000254929150620002e3565b5090565b82805462000266906200035d565b90600052602060002090601f0160209004810192826200028a5760008555620002d5565b82601f10620002a557805160ff1916838001178555620002d5565b82800160010185558215620002d5579182015b82811115620002d5578251825591602001919060010190620002b8565b506200025492915062000304565b8082111562000254576000620002fa82826200031b565b50600101620002e3565b5b8082111562000254576000815560010162000305565b50805462000329906200035d565b6000825580601f106200033a575050565b601f0160209004906000526020600020908101906200035a919062000304565b50565b600181811c908216806200037257607f821691505b6020821081036200039357634e487b7160e01b600052602260045260246000fd5b50919050565b6131c780620003a96000396000f3fe608060405234801561001057600080fd5b50600436106101a95760003560e01c8063715018a6116100f9578063a22cb46511610097578063c87b56dd11610071578063c87b56dd14610382578063e729e3a414610395578063e985e9c5146103b5578063f2fde38b146103f157600080fd5b8063a22cb46514610349578063b09d662a1461035c578063b88d4fde1461036f57600080fd5b806393e84cd9116100d357806393e84cd914610328578063947a36fb1461033057806395d89b41146103395780639ddf88a11461034157600080fd5b8063715018a6146102eb5780637b303965146102f35780638da5cb5b1461031757600080fd5b806340d097c3116101665780636352211e116101405780636352211e1461027f5780636e04ff0d146102925780636f117318146102a557806370a08231146102ca57600080fd5b806340d097c31461024657806342842e0e146102595780634585e33b1461026c57600080fd5b806301ffc9a7146101ae57806306fdde03146101d6578063081812fc146101eb578063095ea7b31461021657806323b872dd1461022b57806337a7b7d81461023e575b600080fd5b6101c16101bc366004611c78565b610404565b60405190151581526020015b60405180910390f35b6101de610456565b6040516101cd9190611ced565b6101fe6101f9366004611d00565b6104e8565b6040516001600160a01b0390911681526020016101cd565b610229610224366004611d35565b610582565b005b610229610239366004611d5f565b610697565b6102296106c8565b610229610254366004611d9b565b6106fb565b610229610267366004611d5f565b610842565b61022961027a366004611db6565b61085d565b6101fe61028d366004611d00565b61090a565b6101c16102a0366004611db6565b610981565b6102b86102b3366004611d00565b6109f7565b6040516101cd96959493929190611e28565b6102dd6102d8366004611d9b565b610abb565b6040519081526020016101cd565b610229610b41565b610306610301366004611d00565b610b77565b6040516101cd959493929190611e65565b6007546001600160a01b03166101fe565b610229610c90565b6102dd600c5481565b6101de610cbf565b610306610cce565b610229610357366004611e9b565b610d01565b61022961036a366004611d00565b610d0c565b61022961037d366004611eed565b610d8d565b6101de610390366004611d00565b610dc5565b6102dd6103a3366004611d9b565b600a6020526000908152604090205481565b6101c16103c3366004611fc9565b6001600160a01b03918216600090815260056020908152604080832093909416825291909152205460ff1690565b6102296103ff366004611d9b565b610f3d565b60006001600160e01b031982166380ac58cd60e01b148061043557506001600160e01b03198216635b5e139f60e01b145b8061045057506301ffc9a760e01b6001600160e01b03198316145b92915050565b60606000805461046590611ffc565b80601f016020809104026020016040519081016040528092919081815260200182805461049190611ffc565b80156104de5780601f106104b3576101008083540402835291602001916104de565b820191906000526020600020905b8154815290600101906020018083116104c157829003601f168201915b5050505050905090565b6000818152600260205260408120546001600160a01b03166105665760405162461bcd60e51b815260206004820152602c60248201527f4552433732313a20617070726f76656420717565727920666f72206e6f6e657860448201526b34b9ba32b73a103a37b5b2b760a11b60648201526084015b60405180910390fd5b506000908152600460205260409020546001600160a01b031690565b600061058d8261090a565b9050806001600160a01b0316836001600160a01b0316036105fa5760405162461bcd60e51b815260206004820152602160248201527f4552433732313a20617070726f76616c20746f2063757272656e74206f776e656044820152603960f91b606482015260840161055d565b336001600160a01b0382161480610616575061061681336103c3565b6106885760405162461bcd60e51b815260206004820152603e60248201527f4552433732313a20617070726f76652063616c6c6572206973206e6f7420746f60448201527f6b656e206f776e6572206e6f7220617070726f76656420666f7220616c6c0000606482015260840161055d565b6106928383610fd5565b505050565b6106a13382611043565b6106bd5760405162461bcd60e51b815260040161055d90612036565b6106928383836110c2565b336000908152600a6020908152604080832054808452600b909252909120600301546106f890829060649061125e565b50565b6007546001600160a01b031633146107255760405162461bcd60e51b815260040161055d90612084565b600061073060085490565b9050610740600880546001019055565b61074a82826112ab565b600060405180610c800160405280610c4d8152602001612545610c4d9139600960008154811061077c5761077c6120b9565b906000526020600020016040516020016107979291906120eb565b60408051601f1981840301815260c0830182528483526064602084810182815285850183815260608701938452426080880190815260a0880186815260008b8152600b865297909720885181559251600184015590516002830155925160038201559151600483015592518051929550909261081b92600585019290910190611bc9565b5050336000908152600a60205260409020839055506106928261083d81610dc5565b6112c5565b61069283838360405180602001604052806000815250610d8d565b60008052600b6020527fdf7de25b7f1fd6d0b5205f0e18f1f35bd7b8d84cce336588d184533ce43a6f7754158015906108cb5750600c5460008052600b6020527fdf7de25b7f1fd6d0b5205f0e18f1f35bd7b8d84cce336588d184533ce43a6f7a546108c9904261218a565b115b15610906576000808052600b602052427fdf7de25b7f1fd6d0b5205f0e18f1f35bd7b8d84cce336588d184533ce43a6f7a5561090690610d0c565b5050565b6000818152600260205260408120546001600160a01b0316806104505760405162461bcd60e51b815260206004820152602960248201527f4552433732313a206f776e657220717565727920666f72206e6f6e657869737460448201526832b73a103a37b5b2b760b91b606482015260840161055d565b6000808052600b6020527fdf7de25b7f1fd6d0b5205f0e18f1f35bd7b8d84cce336588d184533ce43a6f7754158015906109f05750600c5460008052600b6020527fdf7de25b7f1fd6d0b5205f0e18f1f35bd7b8d84cce336588d184533ce43a6f7a546109ee904261218a565b115b9392505050565b600b602052806000526040600020600091509050806000015490806001015490806002015490806003015490806004015490806005018054610a3890611ffc565b80601f0160208091040260200160405190810160405280929190818152602001828054610a6490611ffc565b8015610ab15780601f10610a8657610100808354040283529160200191610ab1565b820191906000526020600020905b815481529060010190602001808311610a9457829003601f168201915b5050505050905086565b60006001600160a01b038216610b255760405162461bcd60e51b815260206004820152602960248201527f4552433732313a2061646472657373207a65726f206973206e6f7420612076616044820152683634b21037bbb732b960b91b606482015260840161055d565b506001600160a01b031660009081526003602052604090205490565b6007546001600160a01b03163314610b6b5760405162461bcd60e51b815260040161055d90612084565b610b75600061135f565b565b60008060008060606000600b60008881526020019081526020016000206040518060c00160405290816000820154815260200160018201548152602001600282015481526020016003820154815260200160048201548152602001600582018054610be190611ffc565b80601f0160208091040260200160405190810160405280929190818152602001828054610c0d90611ffc565b8015610c5a5780601f10610c2f57610100808354040283529160200191610c5a565b820191906000526020600020905b815481529060010190602001808311610c3d57829003601f168201915b50505091909252505050602081015160408201516060830151608084015160a090940151929b919a509850919650945092505050565b336000908152600a6020908152604080832054808452600b909252909120600201546106f8908290606461125e565b60606001805461046590611ffc565b336000908152600a6020526040812054819081908190606090610cf090610b77565b945094509450945094509091929394565b6109063383836113b1565b6000818152600b60205260408120600201548190600a11610d48576000838152600b6020526040902060020154610d4590600a9061218a565b91505b6000838152600b6020526040902060030154600a11610d82576000838152600b6020526040902060030154610d7f90600a9061218a565b90505b61069283838361125e565b610d973383611043565b610db35760405162461bcd60e51b815260040161055d90612036565b610dbf8484848461147f565b50505050565b60606000600b60008481526020019081526020016000206040518060c00160405290816000820154815260200160018201548152602001600282015481526020016003820154815260200160048201548152602001600582018054610e2990611ffc565b80601f0160208091040260200160405190810160405280929190818152602001828054610e5590611ffc565b8015610ea25780601f10610e7757610100808354040283529160200191610ea2565b820191906000526020600020905b815481529060010190602001808311610e8557829003601f168201915b50505050508152505090506000610ebc82602001516114b2565b90506000610ecd83604001516114b2565b90506000610ede84606001516114b2565b905060008460a00151838386604051602001610efd94939291906121a1565b6040516020818303038152906040529050600081604051602001610f21919061233c565b60408051601f1981840301815291905298975050505050505050565b6007546001600160a01b03163314610f675760405162461bcd60e51b815260040161055d90612084565b6001600160a01b038116610fcc5760405162461bcd60e51b815260206004820152602660248201527f4f776e61626c653a206e6577206f776e657220697320746865207a65726f206160448201526564647265737360d01b606482015260840161055d565b6106f88161135f565b600081815260046020526040902080546001600160a01b0319166001600160a01b038416908117909155819061100a8261090a565b6001600160a01b03167f8c5be1e5ebec7d5bd14f71427d1e84f3dd0314c0f7b2291e5b200ac8c7c3b92560405160405180910390a45050565b60008061104f8361090a565b9050806001600160a01b0316846001600160a01b0316148061109657506001600160a01b0380821660009081526005602090815260408083209388168352929052205460ff165b806110ba5750836001600160a01b03166110af846104e8565b6001600160a01b0316145b949350505050565b826001600160a01b03166110d58261090a565b6001600160a01b0316146111395760405162461bcd60e51b815260206004820152602560248201527f4552433732313a207472616e736665722066726f6d20696e636f72726563742060448201526437bbb732b960d91b606482015260840161055d565b6001600160a01b03821661119b5760405162461bcd60e51b8152602060048201526024808201527f4552433732313a207472616e7366657220746f20746865207a65726f206164646044820152637265737360e01b606482015260840161055d565b6111a6600082610fd5565b6001600160a01b03831660009081526003602052604081208054600192906111cf90849061218a565b90915550506001600160a01b03821660009081526003602052604081208054600192906111fd908490612358565b909155505060008181526002602052604080822080546001600160a01b0319166001600160a01b0386811691821790925591518493918716917fddf252ad1be2c89b69c2b068fc378daa952ba7f163c4a11628f55a4df523b3ef91a4505050565b6000838152600b60205260409020600280820184905560039091018290556112868284612358565b6112909190612386565b6000848152600b6020526040902060010155610692836115b3565b6109068282604051806020016040528060008152506118ec565b6000828152600260205260409020546001600160a01b03166113405760405162461bcd60e51b815260206004820152602e60248201527f45524337323155524953746f726167653a2055524920736574206f66206e6f6e60448201526d32bc34b9ba32b73a103a37b5b2b760911b606482015260840161055d565b6000828152600660209081526040909120825161069292840190611bc9565b600780546001600160a01b038381166001600160a01b0319831681179093556040519116919082907f8be0079c531659141344cd1fd0a4f28419497f9722a3daafe3b4186f6b6457e090600090a35050565b816001600160a01b0316836001600160a01b0316036114125760405162461bcd60e51b815260206004820152601960248201527f4552433732313a20617070726f766520746f2063616c6c657200000000000000604482015260640161055d565b6001600160a01b03838116600081815260056020908152604080832094871680845294825291829020805460ff191686151590811790915591519182527f17307eab39ab6107e8899845ad3d59bd9653f200f220920489ca2b5937696c31910160405180910390a3505050565b61148a8484846110c2565b6114968484848461191f565b610dbf5760405162461bcd60e51b815260040161055d9061239a565b6060816000036114d95750506040805180820190915260018152600360fc1b602082015290565b8160005b811561150357806114ed816123ec565b91506114fc9050600a83612386565b91506114dd565b60008167ffffffffffffffff81111561151e5761151e611ed7565b6040519080825280601f01601f191660200182016040528015611548576020820181803683370190505b5090505b84156110ba5761155d60018361218a565b915061156a600a86612405565b611575906030612358565b60f81b81838151811061158a5761158a6120b9565b60200101906001600160f81b031916908160001a9053506115ac600a86612386565b945061154c565b600060096000815481106115c9576115c96120b9565b9060005260206000200180546115de90611ffc565b80601f016020809104026020016040519081016040528092919081815260200182805461160a90611ffc565b80156116575780601f1061162c57610100808354040283529160200191611657565b820191906000526020600020905b81548152906001019060200180831161163a57829003601f168201915b5050506000858152600b6020526040902060010154929350505060640361172657600960008154811061168c5761168c6120b9565b9060005260206000200180546116a190611ffc565b80601f01602080910402602001604051908101604052809291908181526020018280546116cd90611ffc565b801561171a5780601f106116ef5761010080835404028352916020019161171a565b820191906000526020600020905b8154815290600101906020018083116116fd57829003601f168201915b5050505050905061186f565b6000828152600b60205260409020600101546042101561175457600960018154811061168c5761168c6120b9565b6000828152600b60205260409020600101546021101561178257600960028154811061168c5761168c6120b9565b6000828152600b6020526040902060010154156117ad57600960038154811061168c5761168c6120b9565b6000828152600b6020526040812060010154900361186f5760096004815481106117d9576117d96120b9565b9060005260206000200180546117ee90611ffc565b80601f016020809104026020016040519081016040528092919081815260200182805461181a90611ffc565b80156118675780601f1061183c57610100808354040283529160200191611867565b820191906000526020600020905b81548152906001019060200180831161184a57829003601f168201915b505050505090505b600060405180610c800160405280610c4d8152602001612545610c4d91398260405160200161189f929190612419565b60408051601f198184030181529181526000858152600b602090815291902082519293506118d592600590910191840190611bc9565b506118e38361083d85610dc5565b61069283611a20565b6118f68383611a87565b611903600084848461191f565b6106925760405162461bcd60e51b815260040161055d9061239a565b60006001600160a01b0384163b15611a1557604051630a85bd0160e11b81526001600160a01b0385169063150b7a0290611963903390899088908890600401612448565b6020604051808303816000875af192505050801561199e575060408051601f3d908101601f1916820190925261199b91810190612485565b60015b6119fb573d8080156119cc576040519150601f19603f3d011682016040523d82523d6000602084013e6119d1565b606091505b5080516000036119f35760405162461bcd60e51b815260040161055d9061239a565b805181602001fd5b6001600160e01b031916630a85bd0160e11b1490506110ba565b506001949350505050565b6000818152600b6020526040908190206001810154600282015460038301546004840154945186957f5b7212180c4843f77bfe447a3d2c318b109f8e75a13beb11f5d8aa3bbe03fb1095611a7c959493926005909101906124a2565b60405180910390a250565b6001600160a01b038216611add5760405162461bcd60e51b815260206004820181905260248201527f4552433732313a206d696e7420746f20746865207a65726f2061646472657373604482015260640161055d565b6000818152600260205260409020546001600160a01b031615611b425760405162461bcd60e51b815260206004820152601c60248201527f4552433732313a20746f6b656e20616c7265616479206d696e74656400000000604482015260640161055d565b6001600160a01b0382166000908152600360205260408120805460019290611b6b908490612358565b909155505060008181526002602052604080822080546001600160a01b0319166001600160a01b03861690811790915590518392907fddf252ad1be2c89b69c2b068fc378daa952ba7f163c4a11628f55a4df523b3ef908290a45050565b828054611bd590611ffc565b90600052602060002090601f016020900481019282611bf75760008555611c3d565b82601f10611c1057805160ff1916838001178555611c3d565b82800160010185558215611c3d579182015b82811115611c3d578251825591602001919060010190611c22565b50611c49929150611c4d565b5090565b5b80821115611c495760008155600101611c4e565b6001600160e01b0319811681146106f857600080fd5b600060208284031215611c8a57600080fd5b81356109f081611c62565b60005b83811015611cb0578181015183820152602001611c98565b83811115610dbf5750506000910152565b60008151808452611cd9816020860160208601611c95565b601f01601f19169290920160200192915050565b6020815260006109f06020830184611cc1565b600060208284031215611d1257600080fd5b5035919050565b80356001600160a01b0381168114611d3057600080fd5b919050565b60008060408385031215611d4857600080fd5b611d5183611d19565b946020939093013593505050565b600080600060608486031215611d7457600080fd5b611d7d84611d19565b9250611d8b60208501611d19565b9150604084013590509250925092565b600060208284031215611dad57600080fd5b6109f082611d19565b60008060208385031215611dc957600080fd5b823567ffffffffffffffff80821115611de157600080fd5b818501915085601f830112611df557600080fd5b813581811115611e0457600080fd5b866020828501011115611e1657600080fd5b60209290920196919550909350505050565b86815285602082015284604082015283606082015282608082015260c060a08201526000611e5960c0830184611cc1565b98975050505050505050565b85815284602082015283604082015282606082015260a060808201526000611e9060a0830184611cc1565b979650505050505050565b60008060408385031215611eae57600080fd5b611eb783611d19565b915060208301358015158114611ecc57600080fd5b809150509250929050565b634e487b7160e01b600052604160045260246000fd5b60008060008060808587031215611f0357600080fd5b611f0c85611d19565b9350611f1a60208601611d19565b925060408501359150606085013567ffffffffffffffff80821115611f3e57600080fd5b818701915087601f830112611f5257600080fd5b813581811115611f6457611f64611ed7565b604051601f8201601f19908116603f01168101908382118183101715611f8c57611f8c611ed7565b816040528281528a6020848701011115611fa557600080fd5b82602086016020830137600060208483010152809550505050505092959194509250565b60008060408385031215611fdc57600080fd5b611fe583611d19565b9150611ff360208401611d19565b90509250929050565b600181811c9082168061201057607f821691505b60208210810361203057634e487b7160e01b600052602260045260246000fd5b50919050565b6020808252602e908201527f4552433732313a2063616c6c6572206973206e6f7420746f6b656e206f776e6560408201526d1c881b9bdc88185c1c1c9bdd995960921b606082015260800190565b6020808252818101527f4f776e61626c653a2063616c6c6572206973206e6f7420746865206f776e6572604082015260600190565b634e487b7160e01b600052603260045260246000fd5b600081516120e1818560208601611c95565b9290920192915050565b6000835160206120fe8285838901611c95565b81840191506000855461211081611ffc565b60018281168015612128576001811461213957612165565b60ff19841687528287019450612165565b896000528560002060005b8481101561215d57815489820152908301908701612144565b505082870194505b50929998505050505050505050565b634e487b7160e01b600052601160045260246000fd5b60008282101561219c5761219c612174565b500390565b7f7b226e616d65223a2022596f7572204c6974746c6520456d6f6a6920467269658152631b99088b60e21b60208201527f226465736372697074696f6e223a20224b65657020796f7572207065742068616024820152651c1c1e48488b60d21b6044820152691134b6b0b3b2911d101160b11b604a8201526000855161222e816054850160208a01611c95565b61088b60f21b6054918401918201526a22747261697473223a205b60a81b60568201527f7b2274726169745f74797065223a202253617469657479222c2276616c75652260618201526101d160f51b6081820152611e9061232f61232161231b6122e26122dc6122a1608388018d6120cf565b7f7d2c207b2274726169745f74797065223a2022456e726963686d656e74222c208152680113b30b63ab2911d160bd1b602082015260290190565b8a6120cf565b7f7d2c207b2274726169745f74797065223a202248617070696e657373222c2276815266030b63ab2911d160cd1b602082015260270190565b876120cf565b617d5d60f01b815260020190565b607d60f81b815260010190565b6000825161234e818460208701611c95565b9190910192915050565b6000821982111561236b5761236b612174565b500190565b634e487b7160e01b600052601260045260246000fd5b60008261239557612395612370565b500490565b60208082526032908201527f4552433732313a207472616e7366657220746f206e6f6e20455243373231526560408201527131b2b4bb32b91034b6b83632b6b2b73a32b960711b606082015260800190565b6000600182016123fe576123fe612174565b5060010190565b60008261241457612414612370565b500690565b6000835161242b818460208801611c95565b83519083019061243f818360208801611c95565b01949350505050565b6001600160a01b038581168252841660208201526040810183905260806060820181905260009061247b90830184611cc1565b9695505050505050565b60006020828403121561249757600080fd5b81516109f081611c62565b85815260006020868184015285604084015284606084015260a06080840152600084546124ce81611ffc565b8060a087015260c06001808416600081146124f0576001811461250457612532565b60ff1985168984015260e089019550612532565b896000528660002060005b8581101561252a5781548b820186015290830190880161250f565b8a0184019650505b50939c9b50505050505050505050505056fe646174613a696d6167652f7376672b786d6c3b6261736536342c50484e325a79423462577875637a306e6148523063446f764c336433647935334d793576636d63764d6a41774d43397a646d636e494864705a48526f505363784d44416c4a79426f5a576c6e614851394a7a45774d43556e49485a705a586443623367394a7a41674d4341344d4441674f4441774a7a3438636d566a6443426d615778735053636a5a6d5a6d5a6d5a6d4a794233615752306144306e4f4441774a79426f5a576c6e614851394a7a67774d436376506a786b5a575a7a506a78795957527059577848636d466b61575675644342705a44306e59536367593367394a7a51774d43636759336b394a7a51774d436367636a306e4e5441754d53556e49476479595752705a5735305657357064484d394a33567a5a584a546347466a5a55397556584e6c4a7a3438633352766343416762325a6d63325630505363774a79427a644739774c574e76624739795053636a5a6d5a6d5a6d5a6d4a79382b50484e30623341674947396d5a6e4e6c6444306e4d536367633352766343316a62327876636a306e497a424652696376506a7776636d466b6157467352334a685a476c6c626e512b50484a685a476c6862456479595752705a57353049476c6b505364694a79426a6544306e4e4441774a79426a6554306e4e4441774a794279505363314d4334304a5363675a334a685a476c6c626e5256626d6c30637a306e64584e6c636c4e7759574e6c543235566332556e506a787a64473977494342765a6d5a7a5a5851394a7a416e49484e306233417459323973623349394a794e6d5a6d5a6d5a6d596e4c7a3438633352766343416762325a6d63325630505363784a79427a644739774c574e76624739795053636a4d455a474a79382b504339795957527059577848636d466b61575675644434384c32526c5a6e4d2b50484a6c593351675a6d6c736244306e64584a734b434e684b53636764326c6b644767394a7a67774d436367614756705a326830505363344d44416e4c7a34385a79426d615778734c57397759574e7064486b394a7a41754e53632b50484268644767675a6d6c736244306e64584a734b434e694b5363675a44306e54546b354f4334334944517a4f533479597a45754e7930794e693431494445754e7930314d693433494441754d5330334f433431544451774d53417a4f546b754f574d77494441674d4330774c6a45674d4330774c6a46734e5467334c6a59744d5445324c6a6c6a4c5455754d5330794e5334354c5445784c6a6b744e5445754d6930794d43347a4c5463314c6a684d4e4441774c6a6b674d7a6b354c6a646a4d434177494441744d433478494441744d4334786244557a4e79347a4c5449324e574d744d5445754e6930794d7934314c5449304c6a67744e4459754d69307a4f53347a4c5459334c6a6c4d4e4441774c6a67674d7a6b354c6a566a4d434177494441744d4334784c5441754d5330774c6a46734e4455774c6a51744d7a6b31597930784e79347a4c5445354c6a63744d7a55754f43307a4f4334794c5455314c6a55744e5455754e5777744d7a6b31494451314d433430597a41674d4330774c6a45674d4330774c6a45744d4334785444637a4d7934304c546b35597930794d5334334c5445304c6a55744e4451754e4330794e7934324c5459344c544d354c6a4e734c5449324e5341314d7a63754e474d77494441744d433478494441744d433478494442734d546b794c6a59744e5459334c6a526a4c5449304c6a59744f43347a4c5451354c6a6b744d5455754d5330334e5334344c5449774c6a4a4d4e4441774c6a49674d7a6b35597a41674d4330774c6a45674d4330774c6a45674d47777a4f5334794c5455354e793433597930794e6934314c5445754e7930314d6934334c5445754e7930334f4334314c5441754d55777a4f546b754f53417a4f546c6a4d4341774c5441754d5341774c5441754d534177544449344d6934354c5445344f433432597930794e533435494455754d5330314d533479494445784c6a6b744e7a55754f4341794d43347a624445354d693432494455324e793430597a41674d4330774c6a45674d4330774c6a45674d4777744d6a59314c54557a4e79347a597930794d793431494445784c6a59744e4459754d6941794e4334344c5459334c6a6b674d7a6b754d32777a4d7a49754f4341304f5467754d574d77494441744d433478494441744d433478494441754d5577304c6a51744e5445754d554d744d5455754d79307a4d7934354c544d7a4c6a67744d5455754d7930314d533478494451754e4777304e5441754e43417a4f54566a4d434177494441674d4334784c5441754d5341774c6a464d4c546b35494459324c6a5a6a4c5445304c6a55674d6a45754e7930794e793432494451304c6a51744d7a6b754d7941324f4777314d7a63754e4341794e6a566a4d434177494441674d433478494441674d433478624330314e6a63754e4330784f5449754e6d4d744f43347a494449304c6a59744d5455754d5341304f5334354c5449774c6a49674e7a55754f45777a4f546b674d7a6b354c6a686a4d434177494441674d433478494441674d433478624330314f5463754e79307a4f533479597930784c6a63674d6a59754e5330784c6a63674e5449754e7930774c6a45674e7a67754e55777a4f546b674e4441774c6a466a4d434177494441674d433478494441674d433478624330314f4463754e6941784d5459754f574d314c6a45674d6a55754f5341784d533435494455784c6a49674d6a41754d7941334e533434624455324e7934304c5445354d693432597a41674d434177494441754d534177494441754d5777744e544d334c6a4d674d6a5931597a45784c6a59674d6a4d754e5341794e433434494451324c6a49674d7a6b754d7941324e793435624451354f4334784c544d7a4d693434597a41674d434177494441754d5341774c6a45674d433478624330304e5441754e43417a4f54566a4d5463754d7941784f53343349444d314c6a67674d7a67754d6941314e533431494455314c6a56734d7a6b314c5451314d433430597a41674d4341774c6a45674d4341774c6a45674d433478544459324c6a59674f446b35597a49784c6a63674d5451754e5341304e433430494449334c6a59674e6a67674d7a6b754d3277794e6a55744e544d334c6a526a4d434177494441754d534177494441754d534177544449774e79347849446b324f43347a597a49304c6a59674f43347a494451354c6a6b674d5455754d5341334e533434494449774c6a4a4d4d7a6b354c6a67674e444178597a41674d4341774c6a45674d4341774c6a45674d4777744d7a6b754d6941314f5463754e324d794e693431494445754e7941314d693433494445754e7941334f433431494441754d5577304d4441754d5341304d44466a4d434177494441754d534177494441754d534177624445784e693435494455344e793432597a49314c6a6b744e533478494455784c6a49744d5445754f5341334e5334344c5449774c6a4e4d4e4441774c6a4d674e4441774c6a6c6a4d434177494441754d534177494441754d534177624449324e5341314d7a63754d324d794d7934314c5445784c6a59674e4459754d6930794e433434494459334c6a6b744d7a6b754d3077304d4441754e5341304d4441754f474d77494441674d433478494441674d4334784c5441754d57777a4f5455674e4455774c6a526a4d546b754e7930784e79347a49444d344c6a49744d7a55754f4341314e5334314c5455314c6a56734c5451314d4334304c544d354e574d77494441674d4330774c6a45674d4334784c5441754d5577344f546b674e7a4d7a4c6a526a4d5451754e5330794d533433494449334c6a59744e4451754e43417a4f53347a4c545934624330314d7a63754e4330794e6a566a4d434177494441744d433478494441744d433478624455324e793430494445354d693432597a67754d7930794e433432494445314c6a45744e446b754f5341794d4334794c5463314c6a684d4e444178494451774d433479597a41674d4341774c5441754d5341774c5441754d5577354f5467754e7941304d7a6b754d6e6f6e4c7a34384c32632b5048526c654851676544306e4e54416c4a794235505363314d43556e49474e7359584e7a5053646959584e6c4a79426b62323170626d46756443316959584e6c62476c755a54306e62576c6b5a47786c4a7942305a5868304c57467559326876636a306e62576c6b5a47786c4a79426d623235304c584e70656d55394a7a686c6253632b384a2ba2646970667358221220e29bbf12b24714b37f5364ed6b409a0b2510a5903c8a8da575279d1c93009c0e64736f6c634300080e0033",
    "linkReferences": {}
  },
  "methodIdentifiers": {
    "approve(address,uint256)": "095ea7b3",
    "balanceOf(address)": "70a08231",
    "checkUpkeep(bytes)": "6e04ff0d",
    "feed()": "37a7b7d8",
    "getApproved(uint256)": "081812fc",
    "getMyGotchiStats()": "9ddf88a1",
    "getStats(uint256)": "7b303965",
    "idToAttributes(uint256)": "6f117318",
    "interval()": "947a36fb",
    "isApprovedForAll(address,address)": "e985e9c5",
    "name()": "06fdde03",
    "owner()": "8da5cb5b",
    "ownerOf(uint256)": "6352211e",
    "ownerToId(address)": "e729e3a4",
    "passTime(uint256)": "b09d662a",
    "performUpkeep(bytes)": "4585e33b",
    "play()": "93e84cd9",
    "renounceOwnership()": "715018a6",
    "safeMint(address)": "40d097c3",
    "safeTransferFrom(address,address,uint256)": "42842e0e",
    "safeTransferFrom(address,address,uint256,bytes)": "b88d4fde",
    "setApprovalForAll(address,bool)": "a22cb465",
    "supportsInterface(bytes4)": "01ffc9a7",
    "symbol()": "95d89b41",
    "tokenURI(uint256)": "c87b56dd",
    "transferFrom(address,address,uint256)": "23b872dd",
    "transferOwnership(address)": "f2fde38b"
  },
  "id": 17
}